{
  "_format": "hh-sol-artifact-1",
  "contractName": "FilterNft",
  "sourceName": "contracts/Filter.sol",
  "abi": [
    {
      "inputs": [],
      "stateMutability": "nonpayable",
      "type": "constructor"
    },
    {
      "anonymous": false,
      "inputs": [
        {
          "indexed": true,
          "internalType": "address",
          "name": "owner",
          "type": "address"
        },
        {
          "indexed": true,
          "internalType": "address",
          "name": "approved",
          "type": "address"
        },
        {
          "indexed": true,
          "internalType": "uint256",
          "name": "tokenId",
          "type": "uint256"
        }
      ],
      "name": "Approval",
      "type": "event"
    },
    {
      "anonymous": false,
      "inputs": [
        {
          "indexed": true,
          "internalType": "address",
          "name": "owner",
          "type": "address"
        },
        {
          "indexed": true,
          "internalType": "address",
          "name": "operator",
          "type": "address"
        },
        {
          "indexed": false,
          "internalType": "bool",
          "name": "approved",
          "type": "bool"
        }
      ],
      "name": "ApprovalForAll",
      "type": "event"
    },
    {
      "anonymous": false,
      "inputs": [
        {
          "indexed": true,
          "internalType": "address",
          "name": "from",
          "type": "address"
        },
        {
          "indexed": true,
          "internalType": "address",
          "name": "to",
          "type": "address"
        },
        {
          "indexed": true,
          "internalType": "uint256",
          "name": "tokenId",
          "type": "uint256"
        }
      ],
      "name": "Transfer",
      "type": "event"
    },
    {
      "inputs": [
        {
          "internalType": "address",
          "name": "to",
          "type": "address"
        },
        {
          "internalType": "uint256",
          "name": "tokenId",
          "type": "uint256"
        }
      ],
      "name": "approve",
      "outputs": [],
      "stateMutability": "nonpayable",
      "type": "function"
    },
    {
      "inputs": [
        {
          "internalType": "address",
          "name": "owner",
          "type": "address"
        }
      ],
      "name": "balanceOf",
      "outputs": [
        {
          "internalType": "uint256",
          "name": "",
          "type": "uint256"
        }
      ],
      "stateMutability": "view",
      "type": "function"
    },
    {
      "inputs": [
        {
          "internalType": "uint256",
          "name": "tokenId",
          "type": "uint256"
        }
      ],
      "name": "getApproved",
      "outputs": [
        {
          "internalType": "address",
          "name": "",
          "type": "address"
        }
      ],
      "stateMutability": "view",
      "type": "function"
    },
    {
      "inputs": [
        {
          "internalType": "address",
          "name": "owner",
          "type": "address"
        },
        {
          "internalType": "address",
          "name": "operator",
          "type": "address"
        }
      ],
      "name": "isApprovedForAll",
      "outputs": [
        {
          "internalType": "bool",
          "name": "",
          "type": "bool"
        }
      ],
      "stateMutability": "view",
      "type": "function"
    },
    {
      "inputs": [],
      "name": "mintFilter",
      "outputs": [],
      "stateMutability": "nonpayable",
      "type": "function"
    },
    {
      "inputs": [],
      "name": "name",
      "outputs": [
        {
          "internalType": "string",
          "name": "",
          "type": "string"
        }
      ],
      "stateMutability": "view",
      "type": "function"
    },
    {
      "inputs": [
        {
          "internalType": "uint256",
          "name": "tokenId",
          "type": "uint256"
        }
      ],
      "name": "ownerOf",
      "outputs": [
        {
          "internalType": "address",
          "name": "",
          "type": "address"
        }
      ],
      "stateMutability": "view",
      "type": "function"
    },
    {
      "inputs": [
        {
          "internalType": "address",
          "name": "from",
          "type": "address"
        },
        {
          "internalType": "address",
          "name": "to",
          "type": "address"
        },
        {
          "internalType": "uint256",
          "name": "tokenId",
          "type": "uint256"
        }
      ],
      "name": "safeTransferFrom",
      "outputs": [],
      "stateMutability": "nonpayable",
      "type": "function"
    },
    {
      "inputs": [
        {
          "internalType": "address",
          "name": "from",
          "type": "address"
        },
        {
          "internalType": "address",
          "name": "to",
          "type": "address"
        },
        {
          "internalType": "uint256",
          "name": "tokenId",
          "type": "uint256"
        },
        {
          "internalType": "bytes",
          "name": "_data",
          "type": "bytes"
        }
      ],
      "name": "safeTransferFrom",
      "outputs": [],
      "stateMutability": "nonpayable",
      "type": "function"
    },
    {
      "inputs": [
        {
          "internalType": "address",
          "name": "operator",
          "type": "address"
        },
        {
          "internalType": "bool",
          "name": "approved",
          "type": "bool"
        }
      ],
      "name": "setApprovalForAll",
      "outputs": [],
      "stateMutability": "nonpayable",
      "type": "function"
    },
    {
      "inputs": [
        {
          "internalType": "bytes4",
          "name": "interfaceId",
          "type": "bytes4"
        }
      ],
      "name": "supportsInterface",
      "outputs": [
        {
          "internalType": "bool",
          "name": "",
          "type": "bool"
        }
      ],
      "stateMutability": "view",
      "type": "function"
    },
    {
      "inputs": [],
      "name": "symbol",
      "outputs": [
        {
          "internalType": "string",
          "name": "",
          "type": "string"
        }
      ],
      "stateMutability": "view",
      "type": "function"
    },
    {
      "inputs": [
        {
          "internalType": "uint256",
          "name": "tokenId",
          "type": "uint256"
        }
      ],
      "name": "tokenURI",
      "outputs": [
        {
          "internalType": "string",
          "name": "",
          "type": "string"
        }
      ],
      "stateMutability": "view",
      "type": "function"
    },
    {
      "inputs": [
        {
          "internalType": "address",
          "name": "from",
          "type": "address"
        },
        {
          "internalType": "address",
          "name": "to",
          "type": "address"
        },
        {
          "internalType": "uint256",
          "name": "tokenId",
          "type": "uint256"
        }
      ],
      "name": "transferFrom",
      "outputs": [],
      "stateMutability": "nonpayable",
      "type": "function"
    }
  ],
  "bytecode": "0x60806040523480156200001157600080fd5b506040518060400160405280600681526020017f46696c74657200000000000000000000000000000000000000000000000000008152506040518060400160405280600381526020017f464c540000000000000000000000000000000000000000000000000000000000815250816000908051906020019062000096929190620000c0565b508060019080519060200190620000af929190620000c0565b5050506000600681905550620001d5565b828054620000ce9062000170565b90600052602060002090601f016020900481019282620000f257600085556200013e565b82601f106200010d57805160ff19168380011785556200013e565b828001600101855582156200013e579182015b828111156200013d57825182559160200191906001019062000120565b5b5090506200014d919062000151565b5090565b5b808211156200016c57600081600090555060010162000152565b5090565b600060028204905060018216806200018957607f821691505b60208210811415620001a0576200019f620001a6565b5b50919050565b7f4e487b7100000000000000000000000000000000000000000000000000000000600052602260045260246000fd5b6126c480620001e56000396000f3fe608060405234801561001057600080fd5b50600436106100ea5760003560e01c806370a082311161008c578063b88d4fde11610066578063b88d4fde1461025b578063bbf1c8fd14610277578063c87b56dd14610281578063e985e9c5146102b1576100ea565b806370a08231146101f157806395d89b4114610221578063a22cb4651461023f576100ea565b8063095ea7b3116100c8578063095ea7b31461016d57806323b872dd1461018957806342842e0e146101a55780636352211e146101c1576100ea565b806301ffc9a7146100ef57806306fdde031461011f578063081812fc1461013d575b600080fd5b610109600480360381019061010491906118c6565b6102e1565b6040516101169190611c86565b60405180910390f35b6101276103c3565b6040516101349190611ca1565b60405180910390f35b61015760048036038101906101529190611918565b610455565b6040516101649190611c1f565b60405180910390f35b6101876004803603810190610182919061188a565b6104da565b005b6101a3600480360381019061019e9190611784565b6105f2565b005b6101bf60048036038101906101ba9190611784565b610652565b005b6101db60048036038101906101d69190611918565b610672565b6040516101e89190611c1f565b60405180910390f35b61020b6004803603810190610206919061171f565b610724565b6040516102189190611e83565b60405180910390f35b6102296107dc565b6040516102369190611ca1565b60405180910390f35b6102596004803603810190610254919061184e565b61086e565b005b610275600480360381019061027091906117d3565b610884565b005b61027f6108e6565b005b61029b60048036038101906102969190611918565b61090c565b6040516102a89190611ca1565b60405180910390f35b6102cb60048036038101906102c69190611748565b6109b3565b6040516102d89190611c86565b60405180910390f35b60007f80ac58cd000000000000000000000000000000000000000000000000000000007bffffffffffffffffffffffffffffffffffffffffffffffffffffffff1916827bffffffffffffffffffffffffffffffffffffffffffffffffffffffff191614806103ac57507f5b5e139f000000000000000000000000000000000000000000000000000000007bffffffffffffffffffffffffffffffffffffffffffffffffffffffff1916827bffffffffffffffffffffffffffffffffffffffffffffffffffffffff1916145b806103bc57506103bb82610a47565b5b9050919050565b6060600080546103d2906120a8565b80601f01602080910402602001604051908101604052809291908181526020018280546103fe906120a8565b801561044b5780601f106104205761010080835404028352916020019161044b565b820191906000526020600020905b81548152906001019060200180831161042e57829003601f168201915b5050505050905090565b600061046082610ab1565b61049f576040517f08c379a000000000000000000000000000000000000000000000000000000000815260040161049690611e03565b60405180910390fd5b6004600083815260200190815260200160002060009054906101000a900473ffffffffffffffffffffffffffffffffffffffff169050919050565b60006104e582610672565b90508073ffffffffffffffffffffffffffffffffffffffff168373ffffffffffffffffffffffffffffffffffffffff161415610556576040517f08c379a000000000000000000000000000000000000000000000000000000000815260040161054d90611e43565b60405180910390fd5b8073ffffffffffffffffffffffffffffffffffffffff16610575610b1d565b73ffffffffffffffffffffffffffffffffffffffff1614806105a457506105a38161059e610b1d565b6109b3565b5b6105e3576040517f08c379a00000000000000000000000000000000000000000000000000000000081526004016105da90611d83565b60405180910390fd5b6105ed8383610b25565b505050565b6106036105fd610b1d565b82610bde565b610642576040517f08c379a000000000000000000000000000000000000000000000000000000000815260040161063990611e63565b60405180910390fd5b61064d838383610cbc565b505050565b61066d83838360405180602001604052806000815250610884565b505050565b6000806002600084815260200190815260200160002060009054906101000a900473ffffffffffffffffffffffffffffffffffffffff169050600073ffffffffffffffffffffffffffffffffffffffff168173ffffffffffffffffffffffffffffffffffffffff16141561071b576040517f08c379a000000000000000000000000000000000000000000000000000000000815260040161071290611dc3565b60405180910390fd5b80915050919050565b60008073ffffffffffffffffffffffffffffffffffffffff168273ffffffffffffffffffffffffffffffffffffffff161415610795576040517f08c379a000000000000000000000000000000000000000000000000000000000815260040161078c90611da3565b60405180910390fd5b600360008373ffffffffffffffffffffffffffffffffffffffff1673ffffffffffffffffffffffffffffffffffffffff168152602001908152602001600020549050919050565b6060600180546107eb906120a8565b80601f0160208091040260200160405190810160405280929190818152602001828054610817906120a8565b80156108645780601f1061083957610100808354040283529160200191610864565b820191906000526020600020905b81548152906001019060200180831161084757829003601f168201915b5050505050905090565b610880610879610b1d565b8383610f23565b5050565b61089561088f610b1d565b83610bde565b6108d4576040517f08c379a00000000000000000000000000000000000000000000000000000000081526004016108cb90611e63565b60405180910390fd5b6108e084848484611090565b50505050565b600660008154809291906108f99061210b565b919050555061090a336006546110ec565b565b606061091782610ab1565b610956576040517f08c379a000000000000000000000000000000000000000000000000000000000815260040161094d90611e23565b60405180910390fd5b60006109606112c6565b9050600081511161098057604051806020016040528060008152506109ab565b8061098a846112dd565b60405160200161099b929190611bfb565b6040516020818303038152906040525b915050919050565b6000600560008473ffffffffffffffffffffffffffffffffffffffff1673ffffffffffffffffffffffffffffffffffffffff16815260200190815260200160002060008373ffffffffffffffffffffffffffffffffffffffff1673ffffffffffffffffffffffffffffffffffffffff16815260200190815260200160002060009054906101000a900460ff16905092915050565b60007f01ffc9a7000000000000000000000000000000000000000000000000000000007bffffffffffffffffffffffffffffffffffffffffffffffffffffffff1916827bffffffffffffffffffffffffffffffffffffffffffffffffffffffff1916149050919050565b60008073ffffffffffffffffffffffffffffffffffffffff166002600084815260200190815260200160002060009054906101000a900473ffffffffffffffffffffffffffffffffffffffff1673ffffffffffffffffffffffffffffffffffffffff1614159050919050565b600033905090565b816004600083815260200190815260200160002060006101000a81548173ffffffffffffffffffffffffffffffffffffffff021916908373ffffffffffffffffffffffffffffffffffffffff160217905550808273ffffffffffffffffffffffffffffffffffffffff16610b9883610672565b73ffffffffffffffffffffffffffffffffffffffff167f8c5be1e5ebec7d5bd14f71427d1e84f3dd0314c0f7b2291e5b200ac8c7c3b92560405160405180910390a45050565b6000610be982610ab1565b610c28576040517f08c379a0000000000000000000000000000000000000000000000000000000008152600401610c1f90611d63565b60405180910390fd5b6000610c3383610672565b90508073ffffffffffffffffffffffffffffffffffffffff168473ffffffffffffffffffffffffffffffffffffffff161480610ca257508373ffffffffffffffffffffffffffffffffffffffff16610c8a84610455565b73ffffffffffffffffffffffffffffffffffffffff16145b80610cb35750610cb281856109b3565b5b91505092915050565b8273ffffffffffffffffffffffffffffffffffffffff16610cdc82610672565b73ffffffffffffffffffffffffffffffffffffffff1614610d32576040517f08c379a0000000000000000000000000000000000000000000000000000000008152600401610d2990611ce3565b60405180910390fd5b600073ffffffffffffffffffffffffffffffffffffffff168273ffffffffffffffffffffffffffffffffffffffff161415610da2576040517f08c379a0000000000000000000000000000000000000000000000000000000008152600401610d9990611d23565b60405180910390fd5b610dad83838361148a565b610db8600082610b25565b6001600360008573ffffffffffffffffffffffffffffffffffffffff1673ffffffffffffffffffffffffffffffffffffffff1681526020019081526020016000206000828254610e089190611fbe565b925050819055506001600360008473ffffffffffffffffffffffffffffffffffffffff1673ffffffffffffffffffffffffffffffffffffffff1681526020019081526020016000206000828254610e5f9190611f37565b92505081905550816002600083815260200190815260200160002060006101000a81548173ffffffffffffffffffffffffffffffffffffffff021916908373ffffffffffffffffffffffffffffffffffffffff160217905550808273ffffffffffffffffffffffffffffffffffffffff168473ffffffffffffffffffffffffffffffffffffffff167fddf252ad1be2c89b69c2b068fc378daa952ba7f163c4a11628f55a4df523b3ef60405160405180910390a4610f1e83838361148f565b505050565b8173ffffffffffffffffffffffffffffffffffffffff168373ffffffffffffffffffffffffffffffffffffffff161415610f92576040517f08c379a0000000000000000000000000000000000000000000000000000000008152600401610f8990611d43565b60405180910390fd5b80600560008573ffffffffffffffffffffffffffffffffffffffff1673ffffffffffffffffffffffffffffffffffffffff16815260200190815260200160002060008473ffffffffffffffffffffffffffffffffffffffff1673ffffffffffffffffffffffffffffffffffffffff16815260200190815260200160002060006101000a81548160ff0219169083151502179055508173ffffffffffffffffffffffffffffffffffffffff168373ffffffffffffffffffffffffffffffffffffffff167f17307eab39ab6107e8899845ad3d59bd9653f200f220920489ca2b5937696c31836040516110839190611c86565b60405180910390a3505050565b61109b848484610cbc565b6110a784848484611494565b6110e6576040517f08c379a00000000000000000000000000000000000000000000000000000000081526004016110dd90611cc3565b60405180910390fd5b50505050565b600073ffffffffffffffffffffffffffffffffffffffff168273ffffffffffffffffffffffffffffffffffffffff16141561115c576040517f08c379a000000000000000000000000000000000000000000000000000000000815260040161115390611de3565b60405180910390fd5b61116581610ab1565b156111a5576040517f08c379a000000000000000000000000000000000000000000000000000000000815260040161119c90611d03565b60405180910390fd5b6111b16000838361148a565b6001600360008473ffffffffffffffffffffffffffffffffffffffff1673ffffffffffffffffffffffffffffffffffffffff16815260200190815260200160002060008282546112019190611f37565b92505081905550816002600083815260200190815260200160002060006101000a81548173ffffffffffffffffffffffffffffffffffffffff021916908373ffffffffffffffffffffffffffffffffffffffff160217905550808273ffffffffffffffffffffffffffffffffffffffff16600073ffffffffffffffffffffffffffffffffffffffff167fddf252ad1be2c89b69c2b068fc378daa952ba7f163c4a11628f55a4df523b3ef60405160405180910390a46112c26000838361148f565b5050565b606060405180602001604052806000815250905090565b60606000821415611325576040518060400160405280600181526020017f30000000000000000000000000000000000000000000000000000000000000008152509050611485565b600082905060005b600082146113575780806113409061210b565b915050600a826113509190611f8d565b915061132d565b60008167ffffffffffffffff811115611399577f4e487b7100000000000000000000000000000000000000000000000000000000600052604160045260246000fd5b6040519080825280601f01601f1916602001820160405280156113cb5781602001600182028036833780820191505090505b5090505b6000851461147e576001826113e49190611fbe565b9150600a856113f39190612154565b60306113ff9190611f37565b60f81b81838151811061143b577f4e487b7100000000000000000000000000000000000000000000000000000000600052603260045260246000fd5b60200101907effffffffffffffffffffffffffffffffffffffffffffffffffffffffffffff1916908160001a905350600a856114779190611f8d565b94506113cf565b8093505050505b919050565b505050565b505050565b60006114b58473ffffffffffffffffffffffffffffffffffffffff1661162b565b1561161e578373ffffffffffffffffffffffffffffffffffffffff1663150b7a026114de610b1d565b8786866040518563ffffffff1660e01b81526004016115009493929190611c3a565b602060405180830381600087803b15801561151a57600080fd5b505af192505050801561154b57506040513d601f19601f8201168201806040525081019061154891906118ef565b60015b6115ce573d806000811461157b576040519150601f19603f3d011682016040523d82523d6000602084013e611580565b606091505b506000815114156115c6576040517f08c379a00000000000000000000000000000000000000000000000000000000081526004016115bd90611cc3565b60405180910390fd5b805181602001fd5b63150b7a0260e01b7bffffffffffffffffffffffffffffffffffffffffffffffffffffffff1916817bffffffffffffffffffffffffffffffffffffffffffffffffffffffff191614915050611623565b600190505b949350505050565b6000808273ffffffffffffffffffffffffffffffffffffffff163b119050919050565b600061166161165c84611ec3565b611e9e565b90508281526020810184848401111561167957600080fd5b611684848285612066565b509392505050565b60008135905061169b81612632565b92915050565b6000813590506116b081612649565b92915050565b6000813590506116c581612660565b92915050565b6000815190506116da81612660565b92915050565b600082601f8301126116f157600080fd5b813561170184826020860161164e565b91505092915050565b60008135905061171981612677565b92915050565b60006020828403121561173157600080fd5b600061173f8482850161168c565b91505092915050565b6000806040838503121561175b57600080fd5b60006117698582860161168c565b925050602061177a8582860161168c565b9150509250929050565b60008060006060848603121561179957600080fd5b60006117a78682870161168c565b93505060206117b88682870161168c565b92505060406117c98682870161170a565b9150509250925092565b600080600080608085870312156117e957600080fd5b60006117f78782880161168c565b94505060206118088782880161168c565b93505060406118198782880161170a565b925050606085013567ffffffffffffffff81111561183657600080fd5b611842878288016116e0565b91505092959194509250565b6000806040838503121561186157600080fd5b600061186f8582860161168c565b9250506020611880858286016116a1565b9150509250929050565b6000806040838503121561189d57600080fd5b60006118ab8582860161168c565b92505060206118bc8582860161170a565b9150509250929050565b6000602082840312156118d857600080fd5b60006118e6848285016116b6565b91505092915050565b60006020828403121561190157600080fd5b600061190f848285016116cb565b91505092915050565b60006020828403121561192a57600080fd5b60006119388482850161170a565b91505092915050565b61194a81611ff2565b82525050565b61195981612004565b82525050565b600061196a82611ef4565b6119748185611f0a565b9350611984818560208601612075565b61198d81612241565b840191505092915050565b60006119a382611eff565b6119ad8185611f1b565b93506119bd818560208601612075565b6119c681612241565b840191505092915050565b60006119dc82611eff565b6119e68185611f2c565b93506119f6818560208601612075565b80840191505092915050565b6000611a0f603283611f1b565b9150611a1a82612252565b604082019050919050565b6000611a32602583611f1b565b9150611a3d826122a1565b604082019050919050565b6000611a55601c83611f1b565b9150611a60826122f0565b602082019050919050565b6000611a78602483611f1b565b9150611a8382612319565b604082019050919050565b6000611a9b601983611f1b565b9150611aa682612368565b602082019050919050565b6000611abe602c83611f1b565b9150611ac982612391565b604082019050919050565b6000611ae1603883611f1b565b9150611aec826123e0565b604082019050919050565b6000611b04602a83611f1b565b9150611b0f8261242f565b604082019050919050565b6000611b27602983611f1b565b9150611b328261247e565b604082019050919050565b6000611b4a602083611f1b565b9150611b55826124cd565b602082019050919050565b6000611b6d602c83611f1b565b9150611b78826124f6565b604082019050919050565b6000611b90602f83611f1b565b9150611b9b82612545565b604082019050919050565b6000611bb3602183611f1b565b9150611bbe82612594565b604082019050919050565b6000611bd6603183611f1b565b9150611be1826125e3565b604082019050919050565b611bf58161205c565b82525050565b6000611c0782856119d1565b9150611c1382846119d1565b91508190509392505050565b6000602082019050611c346000830184611941565b92915050565b6000608082019050611c4f6000830187611941565b611c5c6020830186611941565b611c696040830185611bec565b8181036060830152611c7b818461195f565b905095945050505050565b6000602082019050611c9b6000830184611950565b92915050565b60006020820190508181036000830152611cbb8184611998565b905092915050565b60006020820190508181036000830152611cdc81611a02565b9050919050565b60006020820190508181036000830152611cfc81611a25565b9050919050565b60006020820190508181036000830152611d1c81611a48565b9050919050565b60006020820190508181036000830152611d3c81611a6b565b9050919050565b60006020820190508181036000830152611d5c81611a8e565b9050919050565b60006020820190508181036000830152611d7c81611ab1565b9050919050565b60006020820190508181036000830152611d9c81611ad4565b9050919050565b60006020820190508181036000830152611dbc81611af7565b9050919050565b60006020820190508181036000830152611ddc81611b1a565b9050919050565b60006020820190508181036000830152611dfc81611b3d565b9050919050565b60006020820190508181036000830152611e1c81611b60565b9050919050565b60006020820190508181036000830152611e3c81611b83565b9050919050565b60006020820190508181036000830152611e5c81611ba6565b9050919050565b60006020820190508181036000830152611e7c81611bc9565b9050919050565b6000602082019050611e986000830184611bec565b92915050565b6000611ea8611eb9565b9050611eb482826120da565b919050565b6000604051905090565b600067ffffffffffffffff821115611ede57611edd612212565b5b611ee782612241565b9050602081019050919050565b600081519050919050565b600081519050919050565b600082825260208201905092915050565b600082825260208201905092915050565b600081905092915050565b6000611f428261205c565b9150611f4d8361205c565b9250827fffffffffffffffffffffffffffffffffffffffffffffffffffffffffffffffff03821115611f8257611f81612185565b5b828201905092915050565b6000611f988261205c565b9150611fa38361205c565b925082611fb357611fb26121b4565b5b828204905092915050565b6000611fc98261205c565b9150611fd48361205c565b925082821015611fe757611fe6612185565b5b828203905092915050565b6000611ffd8261203c565b9050919050565b60008115159050919050565b60007fffffffff0000000000000000000000000000000000000000000000000000000082169050919050565b600073ffffffffffffffffffffffffffffffffffffffff82169050919050565b6000819050919050565b82818337600083830152505050565b60005b83811015612093578082015181840152602081019050612078565b838111156120a2576000848401525b50505050565b600060028204905060018216806120c057607f821691505b602082108114156120d4576120d36121e3565b5b50919050565b6120e382612241565b810181811067ffffffffffffffff8211171561210257612101612212565b5b80604052505050565b60006121168261205c565b91507fffffffffffffffffffffffffffffffffffffffffffffffffffffffffffffffff82141561214957612148612185565b5b600182019050919050565b600061215f8261205c565b915061216a8361205c565b92508261217a576121796121b4565b5b828206905092915050565b7f4e487b7100000000000000000000000000000000000000000000000000000000600052601160045260246000fd5b7f4e487b7100000000000000000000000000000000000000000000000000000000600052601260045260246000fd5b7f4e487b7100000000000000000000000000000000000000000000000000000000600052602260045260246000fd5b7f4e487b7100000000000000000000000000000000000000000000000000000000600052604160045260246000fd5b6000601f19601f8301169050919050565b7f4552433732313a207472616e7366657220746f206e6f6e20455243373231526560008201527f63656976657220696d706c656d656e7465720000000000000000000000000000602082015250565b7f4552433732313a207472616e736665722066726f6d20696e636f72726563742060008201527f6f776e6572000000000000000000000000000000000000000000000000000000602082015250565b7f4552433732313a20746f6b656e20616c7265616479206d696e74656400000000600082015250565b7f4552433732313a207472616e7366657220746f20746865207a65726f2061646460008201527f7265737300000000000000000000000000000000000000000000000000000000602082015250565b7f4552433732313a20617070726f766520746f2063616c6c657200000000000000600082015250565b7f4552433732313a206f70657261746f7220717565727920666f72206e6f6e657860008201527f697374656e7420746f6b656e0000000000000000000000000000000000000000602082015250565b7f4552433732313a20617070726f76652063616c6c6572206973206e6f74206f7760008201527f6e6572206e6f7220617070726f76656420666f7220616c6c0000000000000000602082015250565b7f4552433732313a2062616c616e636520717565727920666f7220746865207a6560008201527f726f206164647265737300000000000000000000000000000000000000000000602082015250565b7f4552433732313a206f776e657220717565727920666f72206e6f6e657869737460008201527f656e7420746f6b656e0000000000000000000000000000000000000000000000602082015250565b7f4552433732313a206d696e7420746f20746865207a65726f2061646472657373600082015250565b7f4552433732313a20617070726f76656420717565727920666f72206e6f6e657860008201527f697374656e7420746f6b656e0000000000000000000000000000000000000000602082015250565b7f4552433732314d657461646174613a2055524920717565727920666f72206e6f60008201527f6e6578697374656e7420746f6b656e0000000000000000000000000000000000602082015250565b7f4552433732313a20617070726f76616c20746f2063757272656e74206f776e6560008201527f7200000000000000000000000000000000000000000000000000000000000000602082015250565b7f4552433732313a207472616e736665722063616c6c6572206973206e6f74206f60008201527f776e6572206e6f7220617070726f766564000000000000000000000000000000602082015250565b61263b81611ff2565b811461264657600080fd5b50565b61265281612004565b811461265d57600080fd5b50565b61266981612010565b811461267457600080fd5b50565b6126808161205c565b811461268b57600080fd5b5056fea264697066735822122089195c9413ad7c446239b2c0d2f099f2ed232ec01768f0166cc1a883e819457864736f6c63430008040033",
  "linkReferences": {},
  "deployedLinkReferences": {}
}